:020000040800F2
:100000000080012061670008916300089563000883
:10001000B9630008BB630008BD630008000000006E
:10002000000000000000000000000000F153000884
:10003000BF6300080000000091540008F554000858
:10004000C1630008B1670008B1670008B167000824
:10005000B1670008B1670008B1670008B167000820
:10006000B1670008B1670008B1670008B167000810
:10007000B1670008B1670008B1670008B167000800
:10008000D1630008E1630008B1670008B1670008A8
:10009000B1670008B1670008B1670008B1670008E0
:1000A000B1670008F1630008B1670008B167000894
:1000B000B1670008B1670008B1670008B1670008C0
:1000C000B1670008B1670008B1670008B1670008B0
:1000D000B16700080164000811640008B1670008F6
:1000E00021640008B1670008B1670008B167000823
:1000F000B1670008B1670008B1670008B167000880
:10010000B1670008B1670008B1670008B16700086F
:10011000B1670008B1670008B1670008B16700085F
:10012000B1670008B1670008B1670008B16700084F
:10013000B1670008B1670008B1670008B16700083F
:10014000B1670008B1670008B1670008B16700082F
:100150002D6400083D640008B1670008B16700081D
:10016000B1670008B1670008B1670008B16700080F
:10017000B1670008B1670008B1670008000000001F
:08018000B1670008B167000837
:1001900010B5054C237833B9044B13B10448AFF3C1
:1001A00000800123237010BD7800002000000000B3
:1001B000747000080C4B43B10C480D4910B5AFF3F7
:1001C00000800C48036823B910BD0A48036833B99E
:1001D0007047094B002BF7D0BDE810401847064B7D
:1001E000002BF5D0184700BF000000007470000815
:1001F0007C000020780000200000000081F0004119
:1002000002E000BF83F0004330B54FEA41044FEAFB
:10021000430594EA050F08BF90EA020F1FBF54EA96
:10022000000C55EA020C7FEA645C7FEA655C00F032
:10023000E2804FEA5454D4EB5555B8BF6D420CDD03
:100240002C4480EA020281EA030382EA000083EA86
:10025000010180EA020281EA0303362D88BF30BD26
:1002600011F0004F4FEA01314FF4801C4CEA11317C
:1002700002D0404261EB410113F0004F4FEA0333DB
:100280004CEA133302D0524263EB430394EA050F66
:1002900000F0A780A4F10104D5F1200E0DDB02FAD5
:1002A0000EFC22FA05F2801841F1000103FA0EF269
:1002B000801843FA05F359410EE0A5F120050EF12F
:1002C000200E012A03FA0EFC28BF4CF0020C43FA60
:1002D00005F3C01851EBE37101F0004507D54FF06D
:1002E000000EDCF1000C7EEB00006EEB0101B1F5BD
:1002F000801F1BD3B1F5001F0CD349085FEA300003
:100300004FEA3C0C04F101044FEA445212F5800F0D
:1003100080F09A80BCF1004F08BF5FEA500C50F1AA
:10032000000041EB045141EA050130BD5FEA4C0C8D
:10033000404141EB010111F4801FA4F10104E9D116
:1003400091F0000F04BF01460020B1FA81F308BF0D
:100350002033A3F10B03B3F120020CDA0C3208DDD9
:1003600002F1140CC2F10C0201FA0CF021FA02F1B4
:100370000CE002F11402D8BFC2F1200C01FA02F124
:1003800020FA0CFCDCBF41EA0C019040E41AA2BF49
:1003900001EB0451294330BD6FEA04041F3C1CDA11
:1003A0000C340EDC04F11404C4F1200220FA04F031
:1003B00001FA02F340EA030021FA04F345EA0301DB
:1003C00030BDC4F10C04C4F1200220FA02F001FA9D
:1003D00004F340EA0300294630BD21FA04F029461F
:1003E00030BD94F0000F83F4801306BF81F48011B8
:1003F0000134013D4EE77FEA645C18BF7FEA655C2B
:1004000029D094EA050F08BF90EA020F05D054EAFC
:10041000000C04BF1946104630BD91EA030F1EBF01
:100420000021002030BD5FEA545C05D14000494105
:1004300028BF41F0004130BD14F580043CBF01F5F8
:10044000801130BD01F0004545F0FE4141F47001DE
:100450004FF0000030BD7FEA645C1ABF19461046B9
:100460007FEA655C1CBF0B46024650EA013406BFBA
:1004700052EA033591EA030F41F4002130BD00BF79
:1004800090F0000F04BF0021704730B54FF4806436
:1004900004F132044FF000054FF0000150E700BFB7
:1004A00090F0000F04BF0021704730B54FF4806416
:1004B00004F1320410F0004548BF40424FF0000103
:1004C0003EE700BF42004FEAE2014FEA31014FEA46
:1004D00002701FBF12F07F4393F07F4F81F0605195
:1004E000704792F0000F14BF93F07F4F704730B504
:1004F0004FF4607401F0004521F0004120E700BF97
:1005000050EA010208BF704730B54FF000050AE01D
:1005100050EA010208BF704730B511F0004502D51E
:10052000404261EB41014FF4806404F132045FEA20
:10053000915C3FF4DCAE4FF003025FEADC0C18BFC5
:1005400003325FEADC0C18BF033202EBDC02C2F1BB
:10055000200300FA03FC20FA02F001FA03FE40EA4D
:100560000E0021FA02F11444C1E600BF70B54FF04D
:10057000FF0C4CF4E06C1CEA11541DBF1CEA13552F
:1005800094EA0C0F95EA0C0F00F0DEF82C4481EA97
:10059000030621EA4C5123EA4C5350EA013518BFB7
:1005A00052EA033541F4801143F4801338D0A0FBA4
:1005B00002CE4FF00005E1FB02E506F00042E0FB51
:1005C00003E54FF00006E1FB03569CF0000F18BF57
:1005D0004EF0010EA4F1FF04B6F5007F64F54074FF
:1005E00004D25FEA4E0E6D4146EB060642EAC62192
:1005F00041EA55514FEAC52040EA5E504FEACE2EFF
:10060000B4F1FD0C88BFBCF5E06F1ED8BEF1004F01
:1006100008BF5FEA500E50F1000041EB045170BD7D
:1006200006F0004646EA010140EA020081EA0301C1
:10063000B4EB5C04C2BFD4EB0C0541EA045170BDBD
:1006400041F480114FF0000E013C00F3AB8014F137
:10065000360FDEBF002001F0004170BDC4F1000480
:10066000203C35DA0C341BDC04F11404C4F1200501
:1006700000FA05F320FA04F001FA05F240EA02005C
:1006800001F0004221F0004110EBD37021FA04F692
:1006900042EB06015EEA430E08BF20EAD37070BD4C
:1006A000C4F10C04C4F1200500FA04F320FA05F0AB
:1006B00001FA04F240EA020001F0004110EBD370AD
:1006C00041F100015EEA430E08BF20EAD37070BD1D
:1006D000C4F1200500FA05F24EEA020E20FA04F3F6
:1006E00001FA05F243EA020321FA04F001F00041A5
:1006F00021FA04F220EA020000EBD3705EEA430E16
:1007000008BF20EAD37070BD94F0000F0FD101F044
:100710000046400041EB010111F4801F08BF013C7D
:10072000F7D041EA060195F0000F18BF704703F0BB
:100730000046520043EB030313F4801F08BF013D42
:10074000F7D043EA0603704794EA0C0F0CEA1355FE
:1007500018BF95EA0C0F0CD050EA410618BF52EAB8
:100760004306D1D181EA030101F000414FF00000BE
:1007700070BD50EA410606BF1046194652EA4306CC
:1007800019D094EA0C0F02D150EA013613D195EA40
:100790000C0F05D152EA03361CBF104619460AD188
:1007A00081EA030101F0004141F0FE4141F4700192
:1007B0004FF0000070BD41F0FE4141F4780170BD82
:1007C00070B54FF0FF0C4CF4E06C1CEA11541DBFE7
:1007D0001CEA135594EA0C0F95EA0C0F00F0A7F8E9
:1007E000A4EB050481EA030E52EA03354FEA013116
:1007F00000F088804FEA03334FF0805545EA131329
:1008000043EA12634FEA022245EA111545EA1065F0
:100810004FEA00260EF000419D4208BF964244F187
:10082000FD0404F5407402D25B084FEA3202B61AA6
:1008300065EB03055B084FEA32024FF480104FF47A
:10084000002CB6EB020E75EB030E22BFB61A7546EE
:1008500040EA0C005B084FEA3202B6EB020E75EB81
:10086000030E22BFB61A754640EA5C005B084FEAE9
:100870003202B6EB020E75EB030E22BFB61A7546B6
:1008800040EA9C005B084FEA3202B6EB020E75EBC1
:10089000030E22BFB61A754640EADC0055EA060E82
:1008A00018D04FEA051545EA16754FEA06164FEAC5
:1008B000C30343EA52734FEAC2025FEA1C1CC0D171
:1008C00011F4801F0BD141EA00014FF000004FF0FE
:1008D000004CB6E711F4801F04BF01430020B4F1BF
:1008E000FD0C88BFBCF5E06F3FF6AFAEB5EB030C77
:1008F00004BFB6EB020C5FEA500C50F1000041EB74
:10090000045170BD0EF0004E4EEA113114EB5C0440
:10091000C2BFD4EB0C0541EA045170BD41F4801113
:100920004FF0000E013C90E645EA060E8DE60CEA1B
:10093000135594EA0C0F08BF95EA0C0F3FF43BAF38
:1009400094EA0C0F0AD150EA01347FF434AF95EAEF
:100950000C0F7FF425AF104619462CE795EA0C0FD3
:1009600006D152EA03353FF4FDAE1046194622E7A0
:1009700050EA410618BF52EA43067FF4C5AE50EA7A
:1009800041047FF40DAF52EA43057FF4EBAE12E76A
:100990004FEA410212F5001215D211D56FF47873A7
:1009A000B3EB625212D94FEAC12343F0004343EA4A
:1009B000505311F0004F23FA02F018BF4042704725
:1009C0004FF00000704750EA013005D111F00040AF
:1009D00008BF6FF0004070474FF00000704700BF45
:1009E00053B94AB9002908BF00281CBF4FF0FF3196
:1009F0004FF0FF3000F07AB9ADF1080C6DE904CE8C
:100A000000F006F8DDF804E0DDE9022304B07047E9
:100A10002DE9F0478C460D460446089E002B51D127
:100A20008A4217466DD9B2FA82FEBEF1000F0BD092
:100A3000CEF1200C01FA0EF520FA0CFC02FA0EF7AA
:100A40004CEA050C00FA0EF44FEA174A250CBCFBE1
:100A5000FAF81FFA87F90AFB18CC45EA0C4508FB9F
:100A600009F3AB420AD9ED1908F1FF3280F0238176
:100A7000AB4240F22081A8F102083D44ED1AA4B235
:100A8000B5FBFAF00AFB105544EA054400FB09F9EE
:100A9000A14509D9E41900F1FF3380F00A81A1458D
:100AA00040F2078102383C44A4EB090440EA0840C4
:100AB0000021002E61D024FA0EF40023346073600C
:100AC000BDE8F0878B4207D9002E54D0002186E87C
:100AD00021000846BDE8F087B3FA83F1002940F011
:100AE0008E80AB4202D3824200F2FA80841A65EB18
:100AF00003050120AC46002E3FD086E81010BDE86B
:100B0000F08712B90127B7FBF2F7B7FA87FEBEF1FB
:100B1000000F34D1EB1B3A0C1FFA87FC0121B3FB09
:100B2000F2F8250C02FB183345EA03450CFB08F3E9
:100B3000AB4207D9ED1908F1FF3002D2AB4200F207
:100B4000D1808046ED1AA3B2B5FBF2F002FB10553E
:100B500043EA05440CFB00FCA44507D9E41900F165
:100B6000FF3302D2A44500F2B8801846A4EB0C046F
:100B700040EA08409DE731463046BDE8F087CEF1B7
:100B8000200405FA0EF307FA0EF720FA04F83A0CDF
:100B900025FA04F448EA0308B4FBF2F14FEA1845D9
:100BA00002FB11441FFA87FC45EA044501FB0CF3E4
:100BB000AB4200FA0EF409D9ED1901F1FF3080F0D3
:100BC0008A80AB4240F2878002393D44EB1A1FFA1B
:100BD00088F5B3FBF2F002FB103345EA034500FB56
:100BE0000CF3AB4207D9ED1900F1FF386FD2AB42DD
:100BF0006DD902383D44EB1A40EA01418FE7C1F15B
:100C0000200722FA07F88B4005FA01F448EA0303AB
:100C100020FA07FE4FEA134CFD404EEA040EB5FBE6
:100C2000FCF94FEA1E440CFB19551FFA83F844EAFD
:100C3000054509FB08F4AC4202FA01F200FA01FA98
:100C400008D9ED1809F1FF3043D2AC4241D9A9F1DE
:100C500002091D442D1B1FFA8EFEB5FBFCF00CFB98
:100C600010554EEA054400FB08F8A04507D9E418E2
:100C700000F1FF3529D2A04527D902381C4440EAAB
:100C80000940A4EB0804A0FB02894C45C6464D462A
:100C900015D312D056B1BAEB0E0364EB050404FA77
:100CA00007F7CB401F43CC40376074600021BDE89C
:100CB000F0871846F8E69046E0E6C245EAD2B8EB7F
:100CC000020E69EB03050138E4E72846D7E7404602
:100CD00091E78146BEE7014678E702383C4445E7A4
:100CE000084608E7A8F102083D442BE7704700BF1B
:100CF00001F0FF01102A2BDB10F0070F08D010F8CD
:100D0000013B013A8B422DD010F0070F42B3F6D1D0
:100D1000F0B441EA012141EA014122F007047FF0E9
:100D200000070023F0E80256083C85EA010586EA40
:100D3000010685FA47F5A3FA87F586FA47F6A5FA7C
:100D400087F68EB9EED1F0BC01F0FF0102F0070288
:100D500032B110F8013B013A83EA010313B1F8D133
:100D60000020704701387047002D06BF3546033814
:100D7000073815F0010F07D1013015F4807F02BF4D
:100D8000013015F4C03F0130F0BC0138704700BF9E
:100D900010B5094A136843F480731360032000F010
:100DA0001FF8002005F0B8FA10B10124204610BD4C
:100DB000044605F091FAF9E700200240034A13685F
:100DC000034909680B441360704700BFEC09002019
:100DD00000000020014B1868704700BFEC0900209C
:100DE000074AD36823F4E0631B041B0C000200F4E1
:100DF000E060184340F0BF6040F40030D0607047BE
:100E000000ED00E030B4164BDB68C3F30223C3F1FE
:100E10000704042C28BF04241D1D062D17D9033BED
:100E2000012505FA04F4013C2140994005FA03F339
:100E3000013B1340194300280BDB0901C9B200F143
:100E4000604000F5614080F8001330BC704700231B
:100E5000E6E700F00F000901C9B2024B1954F4E7AC
:100E600000ED00E014ED00E0002808DB420900F08E
:100E70001F00012303FA00F0014B43F822007047E2
:100E800000E100E070B4066C446C04F01C05012421
:100E9000AC407460046863608368102B05D00368FD
:100EA00099600368DA6070BC704703689A600368F1
:100EB000D960F8E7002869D010B403460168344AC5
:100EC000914245D8334A0A443349A1FB0212120920
:100ED00092004264314A0264022283F82520186895
:100EE000016821F4FF4121F070019A68DC68224317
:100EF0001C6922435C6922439C692243DC692243CA
:100F00001C6A22430A4302609A68B2F5804F15D0EA
:100F1000196C224A914226D0214A1168586C00F07F
:100F20001C040F20A04021EA0001116011685868DC
:100F30005C6C04F01C04A040014311600020D863E5
:100F4000012283F8252083F824005DF8044B7047C4
:100F5000144A0A441049A1FB021212099200426489
:100F6000114A0264B8E7A8321168586C00F01C04FA
:100F70000F20A04021EA00011160116858685C6CE4
:100F800004F01C04A04001431160D7E70120704722
:100F900007040240F8FFFDBFCDCCCCCC00000240DE
:100FA000A8040240F8FBFDBF0004024038B590F8E9
:100FB0002440012C33D0012480F8244090F82540AF
:100FC000E4B2012C04D0002380F82430022038BD84
:100FD0000446022084F825000020E0632568286884
:100FE00020F0010028602046FFF74CFF236B5BB127
:100FF0002268136843F00E0313602268136843F0FD
:1010000001031360002038BD2268136823F0040335
:1010100013602268136843F00A031360EDE70220AF
:1010200038BD90F82530DBB2022B06D00423C36311
:10103000002380F82430012070470268136823F0F1
:101040000E0313600268136823F001031360016C40
:10105000436C03F01C03012202FA03F34B6080F897
:101060002520002380F824301846704708B590F8F2
:101070002530DBB2022B03D00423C363012008BD5B
:101080000268136823F00E0313600268136823F0EC
:1010900001031360016C436C03F01C03012202FA8C
:1010A00003F34B6080F82520002380F82430836B05
:1010B00013B19847002008BD002008BD38B5036C67
:1010C000196804682568436C03F01C0304229A40E5
:1010D000114216D015F0040F13D0236813F0200F1F
:1010E00003D1236823F004032360016C436C03F0F5
:1010F0001C02042393404B60036B002B3ED09847A7
:1011000038BD02229A4011421BD015F0020F18D0B0
:10111000236813F0200F06D1236823F00A0323600D
:10112000012380F82530016C436C03F01C0202237C
:1011300093404B60002380F82430C36AF3B1984792
:1011400038BD082202FA03F3194217D015F0080F30
:1011500014D0236823F00E032360016C436C03F06A
:101160001C03012202FA03F34B60C26380F82520BE
:10117000002380F82430436B03B1984738BDC06B1F
:1011800070470000F0B583B000239EE085684FEA09
:10119000430E032707FA0EF725EA0705CE6806FA7D
:1011A0000EF635438560456825EA04054E68C6F3AA
:1011B00000169E40354345604D6805F00306032E3A
:1011C00000F09780C6685F000324BC40E4432640DB
:1011D0008D68BD402E43C6604D68022D00F09280A0
:1011E000122D00F08F8005682C404D6805F0030536
:1011F000BD402C4304604C6814F0805F64D0544CB4
:10120000256E45F001052566246E04F00104019465
:10121000019C9C08A61C4F4D55F8265003F0030670
:10122000B7000F26BE4025EA0605B0F1904F00F04A
:101230008180494EB0427FD006F58066B0427DD0B5
:1012400006F58066B0427BD006F58066B04279D064
:1012500006F58066B04277D006F58066B04267D06A
:101260000726BE40354302343A4E46F824503B4CE4
:101270002568D44305EA04064F6817F4803F01D07F
:1012800042EA0506354D2E606D6804EA05064F6892
:1012900017F4003F01D042EA0506304D6E60AD689C
:1012A00004EA05064F6817F4801F01D042EA0506DC
:1012B0002A4DAE60ED682C404E6816F4001F01D038
:1012C00042EA0504254AD46001330A6832FA03F47D
:1012D0003CD001249C402240F6D04D686E1E012E69
:1012E0007FF654AF112D3FF451AF122D7FF464AF50
:1012F0004CE7C66A26EA0404C5F3C0059D402543B1
:10130000C5625FE74FEAD30C0CF1080C50F82C5083
:1013100003F0070E4FEA8E0E0F2606FA0EF625EAA8
:1013200006050E6906FA0EF6354340F82C505AE7CA
:10133000062696E7002694E7012692E7022690E724
:1013400003268EE704268CE705268AE703B0F0BD66
:101350000010024000000140000400480004014069
:101360000369194201D100207047012070470AB972
:10137000816270478161704743690B4201D181618D
:10138000704781627047000008B5054B5B690342F6
:1013900000D108BD024B586104F056FEF9E700BFCA
:1013A00000040140024B186800F4C060704700BFA1
:1013B00000700040B0F5007F0FD01F4B1B6803F496
:1013C000C063B3F5806F34D01B4A136823F4C06345
:1013D00043F48063136000207047174B1B6803F4CD
:1013E000C063B3F5007F20D0134A136823F4C063B1
:1013F00043F400731360114B1A68322303FB02F3AA
:101400000F4AA2FB03239B0C013300E0013B0A4A75
:10141000526912F4806F01D0002BF7D1064B5B6943
:1014200013F4806F03D00320704700207047002022
:1014300070470020704700BF00700040100000207F
:1014400083DE1B4330B583B00546204B9B6D13F004
:10145000805F0BD0FFF7A6FFB0F5007F17D0802D7F
:101460001FD82DD0702D2DD000211BE0174CA36D5F
:1014700043F08053A365A36D03F080530193019B58
:10148000FFF790FFA36D23F08053A365E4E7802D61
:1014900003D9A02D03D9022104E0002102E001219B
:1014A00000E003210A4A136823F007030B4313608B
:1014B000136803F00703994206D0012003B030BD42
:1014C0000221EFE70121EDE70020F7E700100240DD
:1014D00000200240284A9368D26802F0030213F009
:1014E0000C030AD00C2B06D0042B1FD0082B20D0C5
:1014F0000020024610E0012AF6D11F4A126812F0BD
:10150000080F0CD11C4AD2F89420C2F303221B49C5
:1015100051F8222043B100200C2B0DD07047164A01
:101520001268C2F30312F2E71046F5E714480022EE
:10153000F2E714480022EFE70F4BDB6803F00303E8
:10154000022B15D0032B15D00B49C868C0F302102D
:10155000431CC868C0F3062000FB02F0B0FBF3F0A8
:10156000CB68C3F3416301335B00B0FBF3F0D5E715
:10157000034AE9E7034AE7E7001002401471000854
:101580000024F40000127A00002800F0FC82F0B57C
:1015900083B00446AF4B9D6805F00C05DE6806F08D
:1015A0000306036813F0100F5BD0E5B10C2D18D0C3
:1015B000A369002B00F0BC80A64A136843F0010326
:1015C0001360FFF707FC0746A24B1B6813F0020FDE
:1015D00040F09B80FFF7FEFBC01B0228F4D90323D9
:1015E000DDE2012EE4D19B4B1B6813F0020F03D008
:1015F000A369002B00F0CA82206A964B1B6813F087
:10160000080F5CD0934B1B6803F0F00383425DD35B
:10161000904B1A6842F008021A601A6822F0F00231
:10162000216A0A431A605A6822F47F42E16942EA59
:1016300001225A60002D61D0FFF74CFF854B9B685B
:10164000C3F30313844AD35C03F01F03D840834BD6
:101650001860834B186804F05FFE0346002840F0D2
:101660009E82236813F0010F00F08180082D75D051
:101670000C2D71D06368B3F5803F00F09780B3F50F
:10168000A02F00F09980734B1A6822F480321A6000
:101690001A6822F480221A606368002B00F0998097
:1016A000FFF798FB07466B4B1B6813F4003F5ED1B6
:1016B000FFF790FBC01B6428F5D903236FE2654B4D
:1016C000D3F894301B0903F0F0039FE7FFF7BAFE4D
:1016D000002840F05D825F4B1A6842F008021A60F1
:1016E0001A6822F0F002216A0A431A605A6822F44A
:1016F0007F42E16942EA01225A609DE7206AFFF7D2
:10170000A1FE002898D0012349E2524B1A6842F00A
:1017100008021A601A6822F0F002216A0A431A606D
:101720005A6822F47F42E16942EA01225A6098E74E
:10173000484A136823F001031360FFF74BFB074689
:10174000444B1B6813F0020F8BD0FFF743FBC01B09
:101750000228F5D9032322E2032E8BD13D4B1B68CF
:1017600013F4003F03D06368002B00F0138223685A
:1017700013F0020F4FD0042D3CD00C2D38D0E3686D
:10178000002B78D0334A136843F480731360FFF75B
:1017900021FB06462F4B1B6813F4806F62D1FFF7C5
:1017A00019FB801B0228F5D90323F8E1294A1368A5
:1017B00043F4803313606FE703F18043A3F53C33B8
:1017C0001A6842F480221A601A6842F480321A6061
:1017D00062E7FFF7FFFA07461E4B1B6813F4003F52
:1017E000C5D0FFF7F7FAC01B6428F5D90323D6E16B
:1017F000022EC4D1174B1B6813F4806F03D0E3682B
:10180000002B00F0C981134A536823F0F853216973
:1018100043EA01635360236813F0080F56D06369ED
:10182000002B3CD00B4AD2F8943043F00103C2F8AD
:101830009430FFF7CFFA0646064BD3F8943013F0F6
:10184000020F43D1FFF7C6FA801B0228F4D9032305
:10185000A5E100BF00100240447100081000002004
:1018600004000020A44A536823F0F853216943EA96
:1018700001635360CFE7A04A136823F480731360B9
:10188000FFF7A8FA06469C4B1B6813F4806FC2D082
:10189000FFF7A0FA801B0228F5D903237FE1964ABF
:1018A000D2F8943023F00103C2F89430FFF792FA93
:1018B0000646914BD3F8943013F0020F06D0FFF791
:1018C00089FA801B0228F4D9032368E1236813F006
:1018D000040F7AD0884B9B6D13F0805F36D1864B16
:1018E0009A6D42F080529A659B6D03F0805301938C
:1018F000019B0126814B1B6813F4807F28D0A368CD
:10190000012B39D0052B3FD07B4BD3F8902022F010
:101910000102C3F89020D3F8902022F00402C3F80B
:101920009020A368002B3DD0FFF754FA0746724B76
:10193000D3F8903013F0020F46D1FFF74BFAC01BDB
:1019400041F288339842F2D9032328E10026D1E7F7
:101950006A4A136843F480731360FFF73BFA074643
:10196000664B1B6813F4807FC9D1FFF733FAC01BA5
:101970000228F5D9032312E15F4AD2F8903043F0F0
:101980000103C2F89030CCE75B4BD3F8902042F0D3
:101990000402C3F89020D3F8902042F00102C3F86B
:1019A0009020BEE7FFF716FA0746534BD3F8903066
:1019B00013F0020F08D0FFF70DFAC01B41F2883375
:1019C0009842F2D90323EAE06EBBA36A002B00F031
:1019D000E580022B2DD00C2D00F0EC80464B1A68D0
:1019E00022F080721A601B6813F0205F04D1424A13
:1019F000D36823F00303D3603F4AD36823F088738E
:101A000023F48033D360FFF7E5F904463A4B1B68B3
:101A100013F0007F00F0B580FFF7DCF9001B02280F
:101A2000F4D90323BBE0344A936D23F080539365CC
:101A3000CBE7314BDB6803F00301E26A91420FD040
:101A40000C2D00F0AF802C4B1B6813F0806F40F022
:101A5000AB80294B1B6813F0805F38D001239EE0D8
:101A600003F07002216B0139B2EB011FE8D103F4DE
:101A7000FE42616BB2EB012FE2D103F40031A26BA5
:101A8000073A18BF01229142DAD103F4C001E26B98
:101A90005208013AB1EB425FD2D103F0C063226C2D
:101AA0005208013AB3EB426FCAD1134B1B6813F0D3
:101AB000007F7BD1104B1A6842F080721A60DA689E
:101AC00042F08072DA60FFF785F9044652E00A4A74
:101AD000136823F080731360FFF77CF90546064B0B
:101AE0001B6813F0007F0BD0FFF774F9401B02282E
:101AF000F5D9032353E000BF0010024000700040FE
:101B00002D4AD3682D491940E36A206B013843EA16
:101B10000013606B43EA0023E06B4008013843EA9E
:101B20004053206C4008013843EA4063A06B000931
:101B300043EA40430B43D360136843F08073136060
:101B4000D36843F08073D360FFF744F904461A4B1F
:101B50001B6813F0007F06D1FFF73CF9001B022839
:101B6000F5D903231BE0002319E0FFF733F9001B2D
:101B700002281DD8104B1B6813F0007FF5D00023FE
:101B80000DE000230BE0012318467047012306E017
:101B9000012304E0012302E0012300E000231846B2
:101BA00003B0F0BD0123FAE70123F8E70023F6E7CD
:101BB0000323F4E70123F2E7001002408C809DF933
:101BC000002800F09B8070B504464E4B1B6803F064
:101BD00007038B420CD24B4A136823F007030B43D5
:101BE0001360136803F00703994201D0012070BD10
:101BF0000D46236813F0010F39D06368032B09D019
:101C0000022B26D063BB404A126812F0020F06D1A5
:101C1000012070BD3C4A126812F0007F70D03A4932
:101C20008A6822F0030213438B60FFF7D3F806465D
:101C3000354B9B6803F00C036268B3EB820F16D040
:101C4000FFF7C8F8801B41F288339842F0D903208F
:101C500070BD2D4A126812F4003FE0D1012070BD22
:101C6000294A126812F4806FD9D1012070BD23680F
:101C700013F0020F06D0244A936823F0F003A16802
:101C80000B4393601F4B1B6803F007039D420CD26C
:101C90001C4A136823F007032B431360136803F0F7
:101CA00007039D4201D0012070BD236813F0040F8B
:101CB00006D0154A936823F4E063E1680B43936010
:101CC000236813F0080F07D00F4A936823F460537A
:101CD000216943EAC1039360FFF7FCFB0A4B9B6851
:101CE000C3F30313094AD35C03F01F03D840084B26
:101CF0001860084B186804F00FFB70BD0120704796
:101D0000012070BD00200240001002404471000814
:101D10001000002004000020014B1868704700BF2D
:101D20001000002008B5FFF7F7FF054B9B68C3F3D1
:101D30000223044AD35C03F01F03D84008BD00BF50
:101D4000001002405471000808B5FFF7E5FF054B8D
:101D50009B68C3F3C223044AD35C03F01F03D8403B
:101D600008BD00BF00100240547100080F2303603B
:101D70000B4B9A6802F0030242609A6802F0F0028C
:101D800082609A6802F4E062C2609B68DB0803F438
:101D9000E0630361034B1B6803F007030B607047AC
:101DA0000010024000200240F8B55E4BDB6813F0E3
:101DB000030F19D05B4BDB6803F003030268934207
:101DC00004D00124002C48D02046F8BD002A42D07F
:101DD000544BDB68C3F3021301334268934201D0D2
:101DE0000124EFE70024EDE70368022B18D0032B52
:101DF0001DD0012B0DD00124002CE3D1494EF268F7
:101E000022F073024568013D43EA05131343F36072
:101E1000D8E7444A126812F0020F14D00024EBE70E
:101E2000404A126812F4806F0FD00024E4E73D4A64
:101E3000126812F4003F0AD13A4A126812F4802F55
:101E400007D00024D8E70124D6E70124D4E70024F2
:101E5000D2E70124D0E70124B4E70F460546314A12
:101E6000136823F080631360FEF7B4FF06462D4B22
:101E70001B6813F0006F05D0FEF7ACFF801B022833
:101E8000F5D90324002C9FD14FBB26490B6923F4BD
:101E90001F3323F44073A868EA681209520442EA27
:101EA000002213430B611F4A136843F080631360E1
:101EB000FEF790FF06461B4B1B6813F0006F05D121
:101EC000FEF788FF801B0228F5D90324002C7FF43D
:101ED0007BAF144A1369A9690B43136174E7012F9F
:101EE0000FD01048026922F0C06222F4FE42A968B5
:101EF0006B695B08013B5B0643EA01231343036103
:101F0000D1E70848026922F4C00222F4FE42A9681F
:101F10002B695B08013B5B0543EA01231343036123
:101F2000C1E700BF00100240F8B5554BDB6813F065
:101F3000030F19D0524BDB6803F00303026893428E
:101F400004D00124002C48D02046F8BD002A42D0FD
:101F50004B4BDB68C3F3021301334268934201D059
:101F60000124EFE70024EDE70368022B18D0032BD0
:101F70001DD0012B0DD00124002CE3D1404EF2687E
:101F800022F073024568013D43EA05131343F360F1
:101F9000D8E73B4A126812F0020F14D00024EBE796
:101FA000374A126812F4806F0FD00024E4E7344AF5
:101FB000126812F4003F0AD1314A126812F4802FDD
:101FC00007D00024D8E70124D6E70124D4E7002471
:101FD000D2E70124D0E70124B4E70F460546284A9A
:101FE000136823F080531360FEF7F4FE0646244B7B
:101FF0001B6813F0005F05D0FEF7ECFE801B022883
:10200000F5D90324002C9FD14FBB1D494B6923F404
:102010001F3323F44073A868EA681209520442EAA5
:10202000002213434B61164A136843F08053136038
:10203000FEF7D0FE0646124B1B6813F0005F05D179
:10204000FEF7C8FE801B0228F5D90324002C7FF47C
:102050007BAF0B4A536969690B43536174E70848C6
:10206000426922F0C06222F4FE42A9682B695B0833
:10207000013B5B0643EA012313434361D3E700BFFF
:10208000001002402DE9F04182B00446036813F4C9
:10209000006F2FD0436EB3F5800F23D014D9B3F562
:1020A000000F18D0B3F5400F22D10026002E40F0CB
:1020B0009980654AD2F8883023F44003616E0B435F
:1020C000C2F88830374617E093B900210430FFF793
:1020D0006BFE0646EAE75C4AD36843F48033D3607C
:1020E0000026E3E700212030FFF71EFF0646DDE76C
:1020F0000126DBE700273E46236813F4805F15D0F6
:10210000A36EB3F1807F7CD06ED9B3F1007F72D023
:10211000B3F1407F7CD1002E7CD14B4AD2F888307D
:1021200023F04073A16E0B43C2F88830236813F488
:10213000003F00F09280444B9B6D13F0805F6BD1A9
:102140000123002B6AD0404B9A6D42F080529A6571
:102150009B6D03F080530193019B4FF001083B4AB4
:10216000136843F480731360FEF734FE0546374B63
:102170001B6813F4807F05D1FEF72CFE401B02285C
:10218000F5D90326002E63D12F4BD3F8903013F4EA
:10219000407316D0D4F88420934212D02A4AD2F841
:1021A000903023F44073D2F8901041F48031C2F89B
:1021B0009010D2F8901021F48031C2F89010C2F83B
:1021C000903013F0010F2CD1002E40F044811E4AB4
:1021D000D2F8903023F44073D4F884100B43C2F843
:1021E000903036E0374687E793B90021201DFFF78E
:1021F000DBFD06468FE7144AD36843F48033D3608F
:1022000089E7002104F12000FFF78EFE064682E7F1
:10221000012680E7374689E7002392E74FF0000860
:102220009DE7FEF7D7FD0546074BD3F8903013F036
:10223000020FC9D1FEF7CEFD401B41F28833984210
:10224000F2D90326C0E700BF001002400070004032
:102250003746B8F1000F40F00081236813F0010FFA
:1022600008D09D4AD2F8883023F00303A16B0B43BA
:10227000C2F88830236813F0020F08D0964AD2F8CB
:10228000883023F00C03E16B0B43C2F888302368DD
:1022900013F0040F08D0904AD2F8883023F03003AE
:1022A000216C0B43C2F88830236813F0080F08D064
:1022B000894AD2F8883023F0C003616C0B43C2F81E
:1022C0008830236813F0100F08D0834AD2F8883082
:1022D00023F44073A16C0B43C2F88830236813F0D9
:1022E000200F08D07C4AD2F8883023F44063E16C98
:1022F0000B43C2F88830236813F4007F08D0764A75
:10230000D2F8883023F44023E16D0B43C2F88830C3
:10231000236813F4806F08D06F4AD2F8883023F412
:102320004013216E0B43C2F88830236813F0400F2E
:1023300008D0694AD2F8883023F44053216D0B430A
:10234000C2F88830236813F0800F08D0624AD2F8B0
:10235000883023F44043616D0B43C2F88830236812
:1023600013F4807F08D05C4AD2F8883023F44033DD
:10237000A16D0B43C2F88830236813F4005F0FD0BF
:10238000554AD2F8883023F04063E16E0B43C2F81F
:102390008830E36EB3F1006F65D0B3F1806F67D022
:1023A000236813F4002F0FD04B4AD2F8883023F063
:1023B0004063216F0B43C2F88830236FB3F1006F85
:1023C0005ED0B3F1806F60D0236813F4802F0FD0FC
:1023D000414AD2F8883023F04063616F0B43C2F862
:1023E0008830636FB3F1006F57D0B3F1806F59D06D
:1023F000236813F4804F0FD0374AD2F8883023F087
:102400004053A16F0B43C2F88830A36FB3F1805FD4
:1024100050D0B3F1005F55D0236813F4004F08D0BB
:102420002D4AD2F8883023F08043E16F0B43C2F885
:102430008830236813F4803F09D0274AD2F88830C7
:1024400023F00043D4F880100B43C2F8883038469C
:1024500002B0BDE8F0813746FBE61F4A936D23F0DA
:1024600080539365F9E6D36843F48013D36097E70C
:102470000121201DFFF798FC002891D007468FE727
:10248000D36843F48013D3609EE70121201DFFF73A
:102490008BFC002898D0074696E7D36843F4801356
:1024A000D360A5E70121201DFFF77EFC00289FD007
:1024B00007469DE70221201DFFF776FC0028ABD0E0
:1024C0000746A9E7022104F12000FFF72DFD0028AF
:1024D000A2D00746A0E700BF0010024070470000EE
:1024E0000268D36843F00103D36002689168064B29
:1024F0000B40062B06D0B3F5803F03D0136843F0A2
:102500000103136000207047070001007047704707
:102510007047704710B5044603681A6912F0020F3D
:1025200011D0DA6812F0020F0DD06FF002021A61BA
:102530000123037703689B6913F0030F79D0FFF73A
:10254000E6FF0023237723681A6912F0040F12D0E4
:10255000DA6812F0040F0ED06FF004021A61022341
:10256000237723689B6913F4407F68D02046FFF7E8
:10257000CEFF0023237723681A6912F0080F12D0C8
:10258000DA6812F0080F0ED06FF008021A61042307
:1025900023772368DB6913F0030F57D02046FFF73A
:1025A000B6FF0023237723681A6912F0100F12D0A8
:1025B000DA6812F0100F0ED06FF010021A610823C3
:1025C00023772368DB6913F4407F46D02046FFF76A
:1025D0009EFF0023237723681A6912F0010F03D0AE
:1025E000DA6812F0010F3FD123681A6912F0800FE8
:1025F00003D0DA6812F0800F3DD123681A6912F413
:10260000807F03D0DA6812F0800F3BD123681A690B
:1026100012F0400F03D0DA6812F0400F39D123686E
:102620001A6912F0200F03D0DA6812F0200F37D1A8
:1026300010BDFFF76BFF2046FFF76AFF81E72046DA
:10264000FFF764FF2046FFF763FF92E72046FFF79E
:102650005DFF2046FFF75CFFA3E72046FFF756FF2C
:102660002046FFF755FFB4E76FF001021A612046DC
:1026700003F024FEB8E76FF080021A61204600F0F4
:1026800095F8BAE76FF480721A61204600F08FF86F
:10269000BCE76FF040021A612046FFF73AFFBEE741
:1026A0006FF020021A61204600F07FF8C0E70000BA
:1026B0000368304A904212D0B0F1804F0FD0A2F59B
:1026C000943290420BD002F58062904207D002F51E
:1026D0008062904203D002F59432904203D123F0FD
:1026E00070034A681343234A90421ED0B0F1804FD2
:1026F0001BD0A2F59432904217D002F5806290422E
:1027000013D002F5806290420FD002F594329042CD
:102710000BD002F54062904207D002F580629042F1
:1027200003D002F58062904203D123F44073CA685B
:10273000134323F080034A69134303608B68C36229
:102740000B6883620B4B98420FD003F500639842ED
:102750000BD003F54063984207D003F5806398429D
:1027600003D003F58063984201D10B690363012311
:1027700043617047002C0140A8B110B5044690F8A1
:102780003D305BB1022384F83D30211D2068FFF706
:102790008FFF012384F83D30002010BD80F83C30CD
:1027A000FFF79CFEEEE701207047704770477047C7
:1027B0000268136823F0C003136020234367704747
:1027C0000268136823F4907313600268936823F01F
:1027D0000103936020238367002303667047436FE0
:1027E000212B00D07047B0F852309BB273B1036810
:1027F000C26C12781A85C36C0133C364B0F85230CE
:102800009BB2013B9BB2A0F85230EBE70268136821
:1028100023F0800313600268136843F040031360E1
:102820007047436F212B00D07047B0F852309BB2F5
:1028300083B1C36C02681B88C3F308031385C36CA0
:102840000233C364B0F852309BB2013B9BB2A0F894
:102850005230E9E70268136823F0800313600268CE
:10286000136843F04003136070470000436F202B50
:1028700001D00220704739B342B390F87030012B79
:1028800026D0012380F87030C164A0F85020A0F851
:10289000522000234366C367212343678368B3F54F
:1028A000805F0BD00B4B4366002380F870300168CB
:1028B0000A6842F080020A60184670470369002BDC
:1028C000F0D1054B4366EFE70120704701207047C8
:1028D00002207047DF2700082328000810B5446F46
:1028E000202C01D0022010BD00293CD0002A3CD071
:1028F00090F87030012B3AD013460446012280F83C
:102900007020C164A0F85030A0F852300022C26795
:1029100021224267826E8AB11649D162826E1649BF
:102920001163826E15495163826E002191630268C2
:102930002832C16C806EFEF739FB58B923684022FB
:102940001A62002084F870002268936843F08003C4
:10295000936010BD1023E367002384F870302023B8
:102960006367012010BD012010BD012010BD0220B1
:1029700010BD00BFE52A0008332B0008892B000892
:1029800010B5846F202C01D0022010BD002941D049
:10299000002A41D090F87030012B3FD013460446F6
:1029A000012280F870204165A0F858300022C267EB
:1029B00022228267C26E8AB11949D162C26E194958
:1029C0001163C26E18495163C26E002191630168A0
:1029D000426D2431C06EFEF7E9FA90B9002084F808
:1029E00070002268136843F4807313602268936850
:1029F00043F0010393602268936843F040039360BF
:102A000010BD1023E367002384F870302023636730
:102A1000012010BD012010BD012010BD022010BDFD
:102A20003D2B00087D2B0008892B000810B50446BB
:102A30000268136823F0C003136003689A6812F0F9
:102A4000800F0BD09A6822F080029A60836E2BB1BF
:102A500000229A63806EFEF7E4FA28B90020A4F8F9
:102A600052002023636710BDA06EFEF788FB20286C
:102A7000F4D11023E367032010BD10B504460268AB
:102A8000136823F4907313600268936823F00103C2
:102A9000936003689A6812F0400F0BD09A6822F096
:102AA00040029A60C36E2BB100229A63C06EFEF79B
:102AB000B8FA70B90020A4F85A0023680F221A62ED
:102AC0002268138B9BB243F0080313832023A36770
:102AD00010BDE06EFEF753FB2028EBD11023E36717
:102AE000032010BD08B5836A0268126812F0200F37
:102AF0000DD10022A3F8522019688A6822F08002C2
:102B00008A601A68136843F04003136008BD1846D2
:102B100003F0B4FA08BD08B501680A6822F0400263
:102B20000A60202242670022426603F0A7FA08BD2D
:102B3000704708B5806AFFF7FBFF08BD08B5836AD8
:102B40000268126812F0200F13D10022A3F85A2055
:102B500019680A6822F480720A6019688A6822F08B
:102B600001028A6019688A6822F040028A60202285
:102B70009A67184603F0BEFA08BD704708B5806A28
:102B8000FFF7FBFF08BD704738B5846A626FA56F19
:102B900023689B6813F0800F01D0212A0ED0236890
:102BA0009B6813F0400F01D0222D0ED0E36F43F04D
:102BB0001003E3672046FFF7E6FF38BD0023A4F8C3
:102BC00052302046FFF7F4FDE9E70023A4F85A301D
:102BD0002046FFF7F5FDE9E738B504460168CB6903
:102BE00008688D6840F60F021A400CD113F0200FD0
:102BF00009D010F0200F06D0236E002B00F0A1802A
:102C00002046984738BD002A7DD015F0010202D138
:102C100010F4907F77D013F0010F07D010F4807F6D
:102C200004D001250D62E16F2943E16713F0020F23
:102C300007D032B1216802250D62E16F41F0040135
:102C4000E16713F0040F07D032B1216804250D624B
:102C5000E16F41F00201E16713F0080F09D010F0B5
:102C6000200F00D12AB1226808211162E26F0A43C5
:102C7000E26713F4006F0AD010F0806F07D022686B
:102C80004FF400611162E26F42F02002E267E26FEE
:102C9000002A56D013F0200F06D010F0200F03D0DA
:102CA000236E0BB120469847E26F23689B6813F0B0
:102CB000400F02D112F0280F1FD02046FFF780FDF1
:102CC00023689A6812F0400F13D09A6822F04002ED
:102CD0009A60E36E4BB11D4A9A63E06EFEF7C6F947
:102CE00078B3E06E836B984738BD2046FFF74BFF03
:102CF00038BD2046FFF747FF38BD2046FFF743FFAA
:102D00000023E36738BD13F4801F02D015F4800F51
:102D10000AD113F0800F0ED010F0800F0BD0636E2D
:102D20007BB12046984738BD4FF480130B62204694
:102D300000F0E8FB38BD13F0400F02D010F0400F58
:102D400000D138BD2046FFF7E6FEFAE7512D000816
:102D500008B5806A0023A0F85A30A0F85230FFF777
:102D600012FF08BD7047000010B5044602681368E2
:102D700023F0C003136003689A6812F0800F1AD022
:102D80009A6822F080029A60836E5BB10E4A9A6361
:102D9000806EFEF76BF908B9002010BDA06E836B42
:102DA0009847F9E70023A0F8523043662023436791
:102DB000FFF7D8FFF0E70023A0F852304366202346
:102DC0004367FFF7CFFFE7E7CD2D000808B5806A1E
:102DD0000023A0F8523020234367FFF7C3FF08BD4C
:102DE0002DE9784B04460168836802691343426900
:102DF0001343C269134308689F4A024013430B60A0
:102E00002268536823F44053E1680B435360A3697D
:102E100022689A498A4201D0216A0B43916821F4C1
:102E200030610B4393602368954A934227D0954ABB
:102E3000934238D0944A93424ED0944A934261D000
:102E4000934A934274D08D4A934200F08A801025B1
:102E50008A4A934200F0AA80E369B3F5004F00F07C
:102E60002C81082D00F2B781DFE815F076018D0185
:102E70009701B501A201B501B501B501AC0102F59B
:102E80005842D2F8882002F00302032A09D8DFE86A
:102E900002F0020481060125DAE70425D8E70825B7
:102EA000D6E71025D4E702F5E632D2F8882002F002
:102EB0000C020C2A0ED8DFE802F0070D0D0D090DEB
:102EC0000D0D6F0D0D0D0B000025C1E70425BFE7AB
:102ED0000825BDE71025BBE702F5E432D2F88820CB
:102EE00002F03002102A09D005D9202A56D0302A03
:102EF00006D10825ACE71AB90025A9E70425A7E7FC
:102F00001025A5E702F5E232D2F8882002F0C002CF
:102F1000402A09D005D9802A42D0C02A06D10825E6
:102F200096E71AB9002593E7042591E710258FE766
:102F300002F5E032D2F8882002F44072B2F5807FC8
:102F40000BD007D9B2F5007F2CD0B2F5407F06D167
:102F500008257DE71AB900257AE7042578E71025CA
:102F600076E702F5C832D2F8882002F44062B2F562
:102F7000806F0BD007D9B2F5006F15D0B2F5406F56
:102F800006D1082564E71AB9002561E704255FE743
:102F900010255DE702255BE7022559E7022557E783
:102FA000022555E7022553E7022551E7082D11D8E0
:102FB000DFE805F0081005100C101010130035485C
:102FC00000260DE0FEF7AEFE002609E0FEF782FACD
:102FD000002605E00020012602E04FF40040002614
:102FE000002800F0CA80626802EB42039842C0F0F9
:102FF000F580B0EB023F00F2F380082D5AD8DFE8ED
:1030000005F005591F59295959594F00FEF78AFEF5
:1030100000234FEA10694FEA00286268500818EB55
:10302000000B49F1000C58466146FDF7D9FCA0F5AC
:103030004072194B9A4200F2D5802368D8609CE018
:103040005508002315480021401941F10001FDF702
:10305000C7FCECE7FEF73EFA00234FEA10694FEA9F
:1030600000286268500818EB000B49F1000C584624
:103070006146FDF7B5FCDAE7F369FFEF0080004039
:10308000003801400044004000480040004C00402F
:10309000005000400024F400FFFC0F00000024F466
:1030A00050080021002310F5000041F10001FDF758
:1030B00097FCBCE701260020B9E7082D49D8DFE8D6
:1030C00005F0051E2948344848483F00FEF72AFE0F
:1030D0006268530803EB4003B3FBF2F39BB2002694
:1030E000A3F110014FF6EF7291427DD89AB222F00F
:1030F0000F02C3F3420313432268D3603DE0FEF79F
:1031000023FE6268530803EB4003B3FBF2F39BB268
:103110000026E5E76268530803F1F47303F5904372
:10312000B3FBF2F39BB20026DAE7FEF7D3F962684D
:10313000530803EB4003B3FBF2F39BB20026CFE747
:103140006268530803F58033B3FBF2F39BB20026A9
:10315000C6E701260023C3E7FEF7E4FD636800EB42
:103160005300B0FBF3F080B20026A0F110024FF63E
:10317000EF739A423AD82368D860002323666366C7
:103180003046BDE8788BFEF7DFFD636800EB530047
:10319000B0FBF3F080B20026E7E76368580800F55B
:1031A000740000F51050B0FBF3F080B20026DCE7AD
:1031B000FEF790F9636800EB5300B0FBF3F080B2C8
:1031C0000026D2E76368580800F50040B0FBF3F032
:1031D00080B20026C9E701260020C6E70126CCE719
:1031E0000126CAE70126C8E70126C6E70126C4E78B
:1031F000436A13F0010F06D00268536823F40033CA
:10320000816A0B435360436A13F0020F06D00268D1
:10321000536823F48033C16A0B435360436A13F04D
:10322000040F06D00268536823F48023016B0B431C
:103230005360436A13F0080F06D00268536823F402
:103240000043416B0B435360436A13F0100F06D0E9
:103250000268936823F48053816B0B439360436A45
:1032600013F0200F06D00268936823F40053C16B5B
:103270000B439360436A13F0400F0AD0026853680F
:1032800023F48013016C0B435360036CB3F5801F70
:103290000BD0436A13F0800F06D00268536823F402
:1032A0000023816C0B43536070470268536823F41A
:1032B000C003416C0B435360EBE72DE9F04104463A
:1032C0000F4616469846069D2368DB6937EA0303D6
:1032D0000CBF01230023B3423CD1B5F1FF3FF3D033
:1032E000FDF778FDA0EB0800854220D3FDB12368EF
:1032F0001A6812F0040FE7D0DA6912F4006FE3D015
:103300004FF400621A622268136823F4D0731360CA
:103310002268936823F00103936020236367A36707
:10332000E367002384F870300320BDE8F081226851
:10333000136823F4D07313602268936823F00103A9
:10334000936020236367A367002384F87030032011
:10335000BDE8F0810020BDE8F0812DE9F04182B0A8
:103360001E46436F202B04D00223184602B0BDE84E
:10337000F08104460D469046002955D0002A55D0CC
:1033800090F87030012B01D10223EEE7012380F881
:1033900070300023C36721234367FDF71BFD0746F9
:1033A000A4F85080A4F85280A368B3F5805F05D0DC
:1033B0004FF00008002384F8703014E0236913B143
:1033C0004FF00008F6E7A8460025F3E7226838F832
:1033D000023BC3F308031385B4F852309BB2013BA0
:1033E0009BB2A4F85230B4F852309BB273B100963D
:1033F0003B46002280212046FFF75FFFC0B9002D29
:10340000E4D0236815F8012B1A85E5E700963B46C2
:10341000002240212046FFF750FF034608B1032356
:10342000A3E720226267A0E701239EE701239CE730
:1034300003239AE730B583B004460023C367FDF742
:10344000C9FC054623681B6813F0080F0CD12368DC
:103450001B6813F0040F15D120236367A3670020B6
:1034600084F8700003B030BD6FF07E4300930346D4
:1034700000224FF400112046FFF71FFF0028E6D07E
:103480000320EFE76FF07E4300932B4600224FF4BA
:1034900080012046FFF711FF0028DDD00320E1E77F
:1034A00068B310B50446436F03B3242363672268EF
:1034B000136823F0010313602046FFF791FC0128F5
:1034C0001FD0636ABBB92268536823F490435360EA
:1034D0002268936823F02A0393602268136843F0FC
:1034E000010313602046FFF7A5FF10BD80F8703080
:1034F00003F026F8D9E72046FFF77AFEE3E701203C
:10350000704710BD704788B110B5044603F008F944
:103510002268E36843F080031360226823696168CE
:103520000B43A1680B435360002010BD012070477E
:103530000368C2681A6000207047704708B50368C6
:103540005A6812F4007F03D09A6812F0010F00D17C
:1035500008BD6FF001029A60FFF7EFFFF8E78428DB
:1035600001D00330704700207047EFF30580003032
:1035700018BF0120704708B500F00AFF002008BD01
:103580002DE9F04184B0044688464568066807691D
:10359000B0F90800FFF7E3FF6369A26902920193A3
:1035A000009043463A463146284600F0B9FE04B042
:1035B000BDE8F08100B583B0134601290BD000228D
:1035C00001684068019000910121044801F00CFD60
:1035D00003B05DF804FB0122F2E700BF6071000850
:1035E00030B585B00546002303930C4601B901248C
:1035F000FFF7BBFFC0B10023009303AB22460921B4
:10360000284601F019FD012802D0FF2005B030BD89
:10361000039BB3B14FF080520B4B1A60BFF34F8F37
:10362000BFF36F8F0020F1E70023009322460421AF
:10363000284601F001FD012801D0FF20E6E7002027
:10364000E4E70020E2E700BF04ED00E008B54168D0
:10365000012000F079FA08BD01290CD100B583B032
:1036600043680322009200221146012000F04EF927
:1036700003B05DF804FB0020704708B50B4601B9A4
:103680000123194600F0DEFF002008BD00F1080309
:1036900043604FF0FF328260C36003610023036028
:1036A000704700230361704743684B609A688A60E3
:1036B0009A6851609960086103680133036070473C
:1036C00030B40D68B5F1FF3F02D000F1080202E00E
:1036D000026904E01A4653681C68A542FAD253688E
:1036E0004B6099608A605160086103680133036030
:1036F00030BC7047036942688168916082684168A4
:1037000051605A68904206D0002202611A68013A5C
:103710001A601868704782685A60F5E7436A23B1F7
:10372000036B1868C0F1070070470020704710B5A0
:10373000044601F06FFEA26BE36B9A4204D00024B2
:1037400001F08AFE204610BD0124F9E710B50446B9
:1037500001F060FEA36B23B1002401F07DFE204642
:1037600010BD0124F9E770B504461646856B026C5E
:103770004AB9036853BB806801F040F90023A36095
:103780000135A56370BD6EB9406803F03DF8226C49
:10379000636813446360A268934219D3236863602B
:1037A0000020EDE7C06803F02FF8236C5B42E2686D
:1037B0001A44E26021688A4202D2A2681344E3609C
:1037C000022E07D145B1013D0020D9E70020D7E7FF
:1037D0000020D5E70020D3E70020D1E7026C72B1CA
:1037E00010B50346C4681444C4608068844201D3A1
:1037F0001868D8600846D96803F006F810BD70470D
:1038000038B5054601F006FE95F8454064B201E082
:10381000013C64B2002C0ADD6B6A43B105F124005F
:1038200000F0E6FF0028F3D001F06EF8F0E7FF2388
:1038300085F8453001F010FE01F0ECFD95F84440AC
:1038400064B201E0013C64B2002C0ADD2B6943B193
:1038500005F1100000F0CCFF0028F3D001F054F87F
:10386000F0E7FF2385F8443001F0F6FD38BD000095
:1038700038B530B304460D4601F0CCFD2168E26B4B
:10388000236C03FB0210A0600020A0636160013A7A
:1038900002FB0313E360FF2384F8443084F84530CF
:1038A000C5B92369F3B104F1100000F0A1FFC8B15C
:1038B0004FF080520D4B1A60BFF34F8FBFF36F8FE5
:1038C00010E04FF0500383F31188BFF36F8FBFF305
:1038D0004F8FFEE704F11000FFF7D8FE04F124003B
:1038E000FFF7D4FE01F0B8FD012038BD04ED00E083
:1038F00010B5029B0C4639B91B60D8631C640121CA
:103900001846FFF7B5FF10BD1A60F6E740B94FF053
:10391000500383F31188BFF36F8FBFF34F8FFEE720
:1039200010B584B0044663B1A2B1A9B10120A8B911
:103930004FF0500383F31188BFF36F8FBFF34F8FA6
:10394000FEE74FF0500383F31188BFF36F8FBFF38F
:103950004F8FFEE70120EAE70020E8E70AB901B14E
:10396000002040B94FF0500383F31188BFF36F8FED
:10397000BFF34F8FFEE7482003900398482808D0F4
:103980004FF0500383F31188BFF36F8FBFF34F8F56
:10399000FEE720461C46039B00949DF81830FFF775
:1039A000A7FF204604B010BDF0B585B0019260B10C
:1039B000044699B10125BDB94FF0500383F3118836
:1039C000BFF36F8FBFF34F8FFEE74FF0500383F3CA
:1039D0001188BFF36F8FBFF34F8FFEE7026C0AB9F8
:1039E0000125E8E70025E6E7022B09D06DB94FF085
:1039F000500383F31188BFF36F8FBFF34F8FFEE740
:103A0000E26B012AF2D00025F0E71E460F4600F0D7
:103A100083FF10B9019B03B1002545B94FF0500356
:103A200083F31188BFF36F8FBFF34F8FFEE700253D
:103A30002CE0324639462046FFF795FE636A8BB18B
:103A400004F1240000F0D4FE38B14FF08052374B1F
:103A50001A60BFF34F8FBFF36F8F01F0FDFC0120A1
:103A600005B0F0BD0028F8D04FF080522F4B1A60FF
:103A7000BFF34F8FBFF36F8FEFE701F0EDFC002036
:103A8000EEE72046FFF7BCFE00F062FD01F0C2FC4D
:103A9000A26BE36B9A42CCD3022ECAD0019B002BBF
:103AA000EBD01DB902A800F0E5FE012501F0D4FC21
:103AB00000F0B8FC01F0AEFC94F844305BB2B3F116
:103AC000FF3F02D1002384F8443094F845305BB2C4
:103AD000B3F1FF3F02D1002384F8453001F0BCFC74
:103AE00001A902A800F0D0FEC8B92046FFF71FFECA
:103AF0000028C6D0019904F1100000F041FE2046D4
:103B0000FFF77EFE00F024FD0028BFD14FF0805269
:103B1000064B1A60BFF34F8FBFF36F8FB6E7204697
:103B2000FFF76EFE00F014FD002099E704ED00E0C1
:103B300048B108B5002181600160C1600B460A46AA
:103B4000FFF732FF08BD704710B582B000900B46FA
:103B5000002211460120FFF7D9FE0446FFF7E8FFD7
:103B6000204602B010BD2DE9F84360B1044699B17A
:103B70000120B8B94FF0500383F31188BFF36F8F62
:103B8000BFF34F8FFEE74FF0500383F31188BFF36D
:103B90006F8FBFF34F8FFEE7006C08B90120E8E795
:103BA0000020E6E7022B09D068B94FF0500383F3F9
:103BB0001188BFF36F8FBFF34F8FFEE7E56B012DC9
:103BC000F2D00020F0E71F469046894601F048FDFC
:103BD000EFF311864FF0500383F31188BFF36F8F1B
:103BE000BFF34F8FA26BE36B9A4201D3022F21D117
:103BF00094F845506DB23A4649462046FFF7B3FD6A
:103C0000B5F1FF3F10D1636AB3B104F1240000F0B5
:103C1000EFFD98B1B8F1000F12D00120C8F80000F4
:103C200086F31188BDE8F8836B1C5BB284F84530DD
:103C30000120F5E70020F3E70120F1E70120EFE79D
:103C40000120EDE760B170B50446036C8BB14FF015
:103C5000500383F31188BFF36F8FBFF34F8FFEE7DD
:103C60004FF0500383F31188BFF36F8FBFF34F8F73
:103C7000FEE7036853B1012373B94FF0500383F398
:103C80001188BFF36F8FBFF34F8FFEE783680BB9C7
:103C90000123F1E70023EFE70E4601F0E1FCEFF32B
:103CA00011854FF0500383F31188BFF36F8FBFF37B
:103CB0004F8FA26BE36B9A421AD294F845305BB2F5
:103CC0000132A263B3F1FF3F0CD1636A93B104F1F7
:103CD000240000F08DFD78B186B10120306085F3BD
:103CE000118870BD01335BB284F845300120F6E7DE
:103CF0000020F4E70120F2E70120F0E70120EEE7E1
:103D0000F0B585B0019260B1044699B10125BDB905
:103D10004FF0500383F31188BFF36F8FBFF34F8FC2
:103D2000FEE74FF0500383F31188BFF36F8FBFF3AB
:103D30004F8FFEE7036C0BB90125E8E70025E6E7A6
:103D40000E4600F0E9FD10B9019B03B1002545B90D
:103D50004FF0500383F31188BFF36F8FBFF34F8F82
:103D6000FEE700272FE031462046FFF737FD013DF3
:103D7000A563236963B104F1100000F039FD38B187
:103D80004FF08052344B1A60BFF34F8FBFF36F8FE9
:103D900001F062FB012005B0F0BD01F05DFB0020E9
:103DA000F9E702A800F066FD012716E0002384F879
:103DB00044301EE0002384F8453020E02046FFF721
:103DC0001FFD00F0C5FB01F025FBA56B002DCAD13E
:103DD000019B002BE1D0002FE3D001F03DFB00F070
:103DE00021FB01F017FB94F844305BB2B3F1FF3FC5
:103DF000DCD094F845305BB2B3F1FF3FDAD001F08C
:103E00002BFB01A902A800F03FFDC8B92046FFF72F
:103E10009DFC0028D2D0019904F1240000F0B0FCF0
:103E20002046FFF7EDFC00F093FB0028CBD14FF0CC
:103E30008052094B1A60BFF34F8FBFF36F8FC2E7F9
:103E40002046FFF7DDFC00F083FB2046FFF77EFCF9
:103E50000028B8D000209EE704ED00E070B584B0E3
:103E6000019158B10446036C8BB14FF0500383F3BA
:103E70001188BFF36F8FBFF34F8FFEE74FF05003F2
:103E800083F31188BFF36F8FBFF34F8FFEE700F00E
:103E900043FD60B9019B63B9012363B94FF050033F
:103EA00083F31188BFF36F8FBFF34F8FFEE70123BA
:103EB000F3E70023F1E700252E464EE0013BA36324
:103EC000236813B900F05AFEA060236963B104F1BE
:103ED000100000F08DFC38B14FF08052474B1A6053
:103EE000BFF34F8FBFF36F8F01F0B6FA012528465D
:103EF00004B070BD45B14FF0500383F31188BFF398
:103F00006F8FBFF34F8FFEE701F0A6FAEFE702A82D
:103F100000F0B0FC01262AE0002384F8443032E0AF
:103F2000002384F8453034E001F074FAA06800F012
:103F300003FD054601F090FA3BE02046FFF760FCE8
:103F400000F006FB09E02046FFF75AFC00F000FBFA
:103F50002046FFF7FBFB002840D101F05BFAA36B82
:103F6000002BABD1019B002BC4D0002ECFD001F091
:103F700073FA00F057FA01F04DFA94F844305BB24E
:103F8000B3F1FF3FC8D094F845305BB2B3F1FF3FC7
:103F9000C6D001F061FA01A902A800F075FC002862
:103FA000D1D12046FFF7D2FB0028C6D02368002BD2
:103FB000BAD0019904F1240000F0E2FB2046FFF79B
:103FC0001FFC00F0C5FA0028C7D14FF080520B4B00
:103FD0001A60BFF34F8FBFF36F8FBEE7002D86D0FF
:103FE00001F018FA2046FFF799FB0146A06800F09F
:103FF00061FD01F031FA002579E700BF04ED00E032
:104000000023072B0CD8074A52F833200AB101339A
:10401000F7E7044A42F8331002EBC30358607047D5
:10402000704700BFF009002070B504460D461646E3
:1040300001F0F0F994F844305BB2B3F1FF3F0DD0DA
:1040400094F845305BB2B3F1FF3F0BD001F004FAB6
:10405000A36B5BB12046FFF7D3FB70BD002384F850
:104060004430EDE7002384F84530EFE73246294637
:1040700004F1240000F09EFBECE70000074B9B6A74
:104080001B6833B1054B9A6AD268D2685268DA620B
:1040900070474FF0FF32014BDA6270479400002006
:1040A0002DE9F04780469946089D099F0A9C266B9A
:1040B00002F18042013A06EB820626F0070691BB28
:1040C000002384F834300BE0D05CE11881F8340030
:1040D000D15C11B101330F2BF6D9002384F84330A2
:1040E000062D00D90625E56265644FF0000AC4F884
:1040F00048A0201DFFF7D5FA04F11800FFF7D1FA08
:104100002461C5F10705A5616462C4F84CA084F878
:1041100050A04A464146304601F052F9206007B1AE
:104120003C60BDE8F0870A460023D4E770B5002460
:10413000062C19D9104C04F1BC063046FFF7A6FA3C
:1041400004F1D0052846FFF7A1FA04F11400FFF7A7
:104150009DFA04F1E400FFF799FA2046FFF796FA7A
:10416000A662C4F8F85070BD1420044B00FB043064
:10417000FFF78CFA0134DBE794000020C400002034
:1041800038B5044601F046F9254BD3F8FC2001323E
:10419000C3F8FC20D3F8003193BB214BC3F8004196
:1041A000D3F8FC30012B01D1FFF7C0FF1C4DD5F82F
:1041B00008310133C5F80831E26A01239340D5F88C
:1041C0000C110B43C5F80C3105F13003211D1420EF
:1041D00000FB0230FFF768FA01F03EF9D5F8043130
:1041E0006BB1D5F80031DA6AE36A9A4207D24FF030
:1041F00080520C4B1A60BFF34F8FBFF36F8F38BDE7
:10420000074BD3F80431002BD0D1054BD3F8003144
:10421000DA6AE36A9A42C9D8014BC3F80041C5E79C
:104220009400002004ED00E0104BD3F81031DBB116
:1042300010B501F0EFF80D4CD4F8F030D868043028
:10424000FFF758FAD4F8FC30013BC4F8FC30D4F83E
:104250001031013BC4F8103101F0FEF8034BD3F8E4
:104260001031002BE5D110BD704700BF9400002035
:1042700008B5FFF7D9FF064B1B6B012BF9D94FF09F
:104280008052044B1A60BFF34F8FBFF36F8FF0E77C
:104290009400002004ED00E070B504460E461F4B6C
:1042A000D3F81451D3F800010430FFF723FA60B9B2
:1042B0001A4BD3F80021D16A012202FA01F1D3F896
:1042C0000C2122EA0102C3F80C21B4F1FF3F12D005
:1042D0002C44124BD3F800315C60A54214D80F4D2A
:1042E000A86AD5F800110431FFF7EAF9EB6A9C429D
:1042F00000D2EC6270BD002EEAD00848D0F8001160
:104300000431FFF7D1F970BD044BD3F8F800D3F8AE
:1043100000110431FFF7D4F970BD00BF94000020F4
:1043200070B586B00B9D0C9C75B1B4B15426049643
:10433000049E542E1AD04FF0500383F31188BFF31C
:104340006F8FBFF34F8FFEE74FF0500383F3118859
:10435000BFF36F8FBFF34F8FFEE74FF0500383F330
:104360001188BFF36F8FBFF34F8FFEE7049E256365
:1043700000250395029405AD01950A9D0095FFF770
:104380008FFE2046FFF7FCFE059806B070BD0000CA
:1043900010B588B000240594069407AA06A905A8BC
:1043A00001F0AEFD059B0293069B0193009423460A
:1043B000079A19491948FFF7B3FF48B101200128AE
:1043C00008D0012809D0B0F1FF3F1BD008B010BDC4
:1043D0000020F4E700F0D2FDF3E74FF0500383F341
:1043E0001188BFF36F8FBFF34F8F0D4B4FF0FF322C
:1043F000DA620122C3F804210022C3F8142101F07B
:10440000ABF8E3E74FF0500383F31188BFF36F8FEE
:10441000BFF34F8FFEE700BF5C71000871420008D8
:1044200094000020034AD2F818310133C2F8183141
:10443000704700BF94000020014BD3F8140170476F
:10444000940000202DE9F041404BD3F81831002BA7
:104450006CD13E4BD3F814510135C3F81451CDB98A
:104460009B6A1B6843B14FF0500383F31188BFF37D
:104470006F8FBFF34F8FFEE7344B9A6AD3F8F81073
:104480009962C3F8F820D3F81C210132C3F81C212B
:10449000FFF7F4FD2D4BDB6A9D423DD200242B4AF1
:1044A000D2F80031DB6A03EB830399000A44136BF3
:1044B000012B42D9012440E00124244B9B6A1B6854
:1044C00063B3224B9B6ADB68DE6873689D422AD324
:1044D00006F104084046FFF70DF9B36A1BB106F177
:1044E0001800FFF707F9F36A01229A40174FD7F82F
:1044F0000C110A43C7F80C2107F1300003EB8303CA
:104500009A0041461044FFF7CFF8F26AD7F800311D
:10451000DB6A9A42D0D2D0E70024CEE74FF0FF32D8
:104520000A4BDA62BBE7094AD362B8E7074AD2F816
:1045300020310133C2F820310024044BD3F8243158
:1045400003B101242046BDE8F08100BF94000020A3
:104550003A4BD3F8183143B94FF0500383F3118825
:10456000BFF36F8FBFF34F8FFEE770B500F052FFC0
:10457000324BD3F81821013AC3F81821D3F8183177
:10458000002B57D12D4BD3F8FC3023B9002400F079
:1045900063FF204670BD0024284B5B692BB3274D79
:1045A0002B6ADC6804F11800FFF7A4F8261D3046DA
:1045B000FFF7A0F8E36A01229A40D5F80C110A43EC
:1045C000C5F80C2105F1300003EB83039A00314656
:1045D0001044FFF769F8E26AD5F80031DB6A9A42C5
:1045E000DAD30122C5F82421D6E70CB1FFF746FD46
:1045F000124BD3F820417CB9104BD3F82431DBB1F6
:104600004FF080520E4B1A60BFF34F8FBFF36F8F86
:104610000124BCE7013C08D0FFF714FF0028F9D0C3
:104620000122064BC3F82421F4E70022034BC3F810
:104630002021E1E70024AAE70024A8E79400002055
:1046400004ED00E038B550B1054689B94FF050038C
:1046500083F31188BFF36F8FBFF34F8FFEE74FF0E7
:10466000500383F31188BFF36F8FBFF34F8FFEE7C3
:104670001D4BD3F8183143B14FF0500383F3118829
:10468000BFF36F8FBFF34F8FFEE70C46FFF7CAFEF5
:10469000154BD3F814012A681444904216D2A24252
:1046A0001AD9A0421AD300222C601AB10021201A74
:1046B000FFF7F2FDFFF74CFF38B94FF080520B4B7C
:1046C0001A60BFF34F8FBFF36F8F38BDA24207D878
:1046D000A04207D30022E7E70022E5E70122E3E753
:1046E0000122E1E70122DFE79400002004ED00E071
:1046F000224BD3F81831CBB9204A0023C2F8243119
:10470000D2F80C31B3FA83F3DBB2C3F11F0303EB2E
:10471000830081000A44126B6AB94FF0500383F39F
:104720001188BFF36F8FBFF34F8FFEE70122134B4A
:10473000C3F82421704710B4104A9900CC18A00087
:104740001044446B64684463303219448800014665
:104750000830024494420BD0084903EB83039A00CB
:104760000A44536BDB68C1F800315DF8044B7047B5
:104770006068024A0A445063EEE700BF94000020DC
:1047800040B94FF0500383F31188BFF36F8FBFF32D
:104790004F8FFEE710B50C46054BD3F800111831CA
:1047A000FEF78EFF01212046FFF776FD10BD00BF0A
:1047B0009400002038B578B10C4615460B4AD2F863
:1047C00000111831FEF770FF0DB14FF0FF3429468C
:1047D0002046FFF761FD38BD4FF0500383F3118889
:1047E000BFF36F8FBFF34F8FFEE700BF9400002031
:1047F00038B5C368DC684CB304F118052846FEF7E9
:1048000079FF1A4BD3F818314BBB251D2846FEF70C
:1048100071FFE36A01219940144AD2F80C01014367
:10482000C2F80C11303203EB830398002946104480
:10483000FEF73AFFE26A0D4BD3F80031DB6A9A4289
:1048400012D90120094BC3F8240138BD4FF05003A1
:1048500083F31188BFF36F8FBFF34F8FFEE72946B5
:104860000348FEF721FFE5E7002038BD9400002053
:10487000A8000020034BD3F81C210260D3F81431A8
:104880004360704794000020F8B5F0B1054629B3A5
:104890000C4600F0BFFD1B4BD3F814016968421AA7
:1048A0002368B3F1FF3F29D02F68164ED6F81C615C
:1048B000B74201D0884223D29A4218D30023236002
:1048C000012400F0C9FD2046F8BD4FF0500383F3EA
:1048D0001188BFF36F8FBFF34F8FFEE74FF0500388
:1048E00083F31188BFF36F8FBFF34F8FFEE79B1ADF
:1048F00023602846FFF7BEFF0024E2E70024E0E73C
:104900000124DEE7940000200122024BC3F8242199
:10491000704700BF94000020064BD3F804312BB140
:10492000044BD3F818311BB902207047012070479F
:104930000020704794000020002859D038B5044664
:10494000C26A2C49D1F80011C96A8A4245D28169EC
:10495000002906DB2749D1F80011C96AC1F1070116
:104960008161606902EB82029100234A0A4490420D
:1049700006D0204AD2F80021D26AE262012038BD76
:10498000251D2846FEF7B6FE80B9E26A02EB8203D7
:104990009900184B0B441B6B43B9012393401549F5
:1049A000D1F80C2122EA0302C1F80C211148D0F8F9
:1049B0000031DB6AE362012404FA03F2D0F80C113F
:1049C0000A43C0F80C21303003EB83039A002946D8
:1049D0001044FEF769FE204638BD426C054BD3F803
:1049E0000031DB6A9A4201D2012038BD002038BD77
:1049F0000020704794000020C4000020002850D000
:104A000038B504462A4AD2F80021904208D04FF027
:104A1000500383F31188BFF36F8FBFF34F8FFEE70F
:104A2000826C42B94FF0500383F31188BFF36F8F4C
:104A3000BFF34F8FFEE7013A8264C06A616C88421F
:104A400031D092BB251D2846FEF754FE88B9E26A94
:104A500002EB82039900164B0B441B6B4BB90123ED
:104A600003FA02F21249D1F80C3123EA0203C1F829
:104A70000C31636CE362C3F10702A261012404FA02
:104A800003F10B4AD2F80C010143C2F80C11303289
:104A900003EB8303980029461044FEF705FE2046E9
:104AA00038BD00207047002038BD002038BD00BF51
:104AB0009400002000285CD038B50446806C40B9D2
:104AC0004FF0500383F31188BFF36F8FBFF34F8F05
:104AD000FEE7626C8A4200D20A46E16A8A4201D04D
:104AE000012800D038BD2348D0F80001844208D105
:104AF0004FF0500383F31188BFF36F8FBFF34F8FD5
:104B0000FEE7E262A069002802DBC2F10702A261AF
:104B1000636901EB81018800174A02449342E1D1A5
:104B2000251D2846FEF7E6FD88B9E26A02EB8203FE
:104B30009900104B0B441B6B4BB9012303FA02F293
:104B40000C49D1F80C3123EA0203C1F80C31E36AB5
:104B500001219940074AD2F80C010143C2F80C1117
:104B6000303203EB8303980029461044FEF79CFD86
:104B7000B8E7704794000020C4000020064BD3F82B
:104B800000312BB1044BD3F80021936C01339364B3
:104B9000014BD3F80001704794000020F8B5074698
:104BA0000D4614461E4600F035FC244BD3F8003168
:104BB00093F85030DBB2022B0CD0204BD3F80021FD
:104BC000D06C20EA0700D064D3F80031012283F8CA
:104BD0005020E6B900F040FC00F01CFC24B1174B5B
:104BE000D3F80031DB6C2360144BD3F8003193F819
:104BF0005030DBB2022B17D00024104BD3F8003119
:104C0000002283F8502000F027FC2046F8BD114612
:104C10003046FFF741FB4FF08052094B1A60BFF35B
:104C20004F8FBFF36F8FD5E7044BD3F80021D36CC0
:104C300023EA0505D5640124DFE700BF94000020C6
:104C400004ED00E0F8B5A8B104461F4616460D462F
:104C500000F0E0FB0FB1E36C3B6094F85030DBB246
:104C6000022284F85020042E40D8DFE806F04C0CD5
:104C700032373A004FF0500383F31188BFF36F8F40
:104C8000BFF34F8FFEE7E26C1543E5640125012B6E
:104C90004ED1261D3046FEF72DFDE36A01219940D5
:104CA000254AD2F80C010143C2F80C11303203EB53
:104CB0008303980031461044FEF7F6FCA36A43B321
:104CC0004FF0500383F31188BFF36F8FBFF34F8F03
:104CD000FEE7E26C0132E2640125D8E7E5640125D4
:104CE000D5E7022B11D0E5640125D0E7E26CB2F1E3
:104CF000FF3F0CD04FF0500383F31188BFF36F8F49
:104D0000BFF34F8FFEE70125C1E70025BFE701256F
:104D1000BDE7E26A084BD3F80031DB6A9A4207D953
:104D20004FF08052054B1A60BFF34F8FBFF36F8F68
:104D300000F092FB2846F8BD9400002004ED00E04E
:104D40002DE9F843089E10B30446994617460D46D0
:104D500000F086FCEFF311884FF0500383F31188C5
:104D6000BFF36F8FBFF34F8FB9F1000F02D0E36C29
:104D7000C9F8003094F85030DBB2022284F8502099
:104D8000042F2BD8DFE807F0370C1D2225004FF049
:104D9000500383F31188BFF36F8FBFF34F8FFEE78C
:104DA000E26C1543E5640125012B51D1A36A43B39D
:104DB0004FF0500383F31188BFF36F8FBFF34F8F12
:104DC000FEE7E26C0132E2640125EDE7E5640125CE
:104DD000EAE7022B11D0E5640125E5E7E26CB2F1C8
:104DE000FF3F0CD04FF0500383F31188BFF36F8F58
:104DF000BFF34F8FFEE70125D6E70025D4E7012555
:104E0000D2E7194BD3F818313BBB271D3846FEF7C4
:104E100071FCE36A01219940134AD2F80C01014365
:104E2000C2F80C11303203EB83039800394610446A
:104E3000FEF73AFCE26A0C4BD3F80031DB6A9A4287
:104E400006D90EB1012333600122074BC3F8242198
:104E500088F311882846BDE8F88304F11801034857
:104E6000FEF722FCE6E700BF94000020A800002027
:104E7000064B1A6813682BB90123036023B9D36862
:104E8000186870470023F8E700207047BC01002035
:104E900008B54160006191420CD8D21A83699A42E8
:104EA00001D3012008BD011D094B5868FEF708FC1D
:104EB000002008BD9A4201D2994206D2011D044B3E
:104EC0001868FEF7FDFB002008BD012008BD00BFEB
:104ED000BC01002070B582B000F09CFA124B9B68B8
:104EE0001BB100F0B9FA02B070BD0F4C04F10C0612
:104EF0003046FEF7CBFB04F120052846FEF7C6FB43
:104F0000266065600023009304F1340304F17C0201
:104F10000C210A20FEF7FAFCA0600028E1D003492A
:104F2000FFF76EF8DDE700BFBC01002064710008E8
:104F30002DE9F041079C41B94FF0500383F31188EC
:104F4000BFF36F8FBFF34F8FFEE70F46A4B11E462E
:104F500015468046FFF7BEFFC4F80080A761E661F2
:104F6000069B2362201DFEF79CFB2DB194F8243094
:104F700043F0040384F82430BDE8F08110B588B014
:104F8000FFF7A8FF154B9B6823B3002405940694F4
:104F900007AA06A905A800F0C1FF059B0293069B7E
:104FA0000193052300932346079A0D490D48FFF707
:104FB000B7F90A4BC3F8F40050B1012060B94FF0C3
:104FC000500383F31188BFF36F8FBFF34F8FFEE75A
:104FD0002046F3E70020F1E708B010BDBC01002037
:104FE0006C7100082D53000830B585B0099C282548
:104FF0000395039D282D08D04FF0500383F31188AB
:10500000BFF36F8FBFF34F8FFEE7039D44B94FF09F
:10501000500383F31188BFF36F8FBFF34F8FFEE709
:10502000022584F824500194089D0095FFF780FF25
:10503000204605B030BD0000C0B130B585B0154682
:105040000446174A906840B31A46019102950394AA
:1050500005291CDCFFF760FC022810D000231A464B
:1050600001A90F488068FEF79FFC14E04FF0500341
:1050700083F31188BFF36F8FBFF34F8FFEE70023D9
:10508000089A01A906488068FEF78EFC03E0002319
:1050900001A9FEF768FD05B030BD0020FBE700BFA9
:1050A000BC010020214B1B681A68002A39D070B55A
:1050B00082B0DB681E68DC68251D2846FEF71AFBF7
:1050C000236A2046984794F8243013F0040F0AD13D
:1050D000164B1B681A68002AEBD1144A51681160FC
:1050E000536002B070BDA36933449E4207D263602F
:1050F000246129460D4B1868FEF7E2FAE8E7002123
:1051000000910B4632462046FFF796FF0028DFD17C
:105110004FF0500383F31188BFF36F8FBFF34F8FAE
:10512000FEE7024A5168116053607047BC010020DD
:1051300038B50546FFF780F90446084BD3F8F83038
:10514000984206D300232B60044BC3F8F840204656
:1051500038BDFFF7A7FF01232B60F5E7BC01002056
:1051600070B582B005460E46174B1B68DB68DC68DD
:10517000201DFEF7BFFA94F8243013F0040F08D175
:1051800023F0010384F82430236A2046984702B0B4
:1051900070BDA1692B46324629442046FFF778FEB0
:1051A0000028F1D0002100910B462A462046FFF747
:1051B00043FF0028E8D14FF0500383F31188BFF379
:1051C0006F8FBFF34F8FFEE7BC01002070B582B038
:1051D00006460C46FFF726F901A8FFF7A9FF019B39
:1051E0002BBB05460CB9B04218D224B1114B5B68F9
:1051F0001B68D3B901242246711B0E4B9868FEF739
:1052000013FFFFF7A5F938B94FF080520A4B1A6027
:10521000BFF34F8FBFF36F8F02B070BDFFF798F9E8
:1052200029463046FFF79CFFF6E70024E3E7FFF747
:105230008FF9F1E7BC01002004ED00E030B587B044
:10524000002203A9384B9868FEF75AFD002868D061
:10525000039B002BF4DB059C636913B1201DFEF753
:1052600049FA02A8FFF764FF039B092BE8D8DFE89F
:1052700003F00505053138510505313894F824301F
:1052800043F0010384F824300499A5690B460246D3
:1052900029442046FFF7FCFD0028D1D0236A204690
:1052A000984794F8243013F0040FC9D0A269002164
:1052B00000910B46049802442046FFF7BDFE0028EB
:1052C000BED14FF0500383F31188BFF36F8FBFF34C
:1052D0004F8FFEE794F8243023F0010384F8243044
:1052E000AEE794F8243043F0010384F824300499A5
:1052F000A16131B10346024601442046FFF7C8FDD3
:105300009EE74FF0500383F31188BFF36F8FBFF315
:105310004F8FFEE794F8243023F0010384F8243003
:105320008EE707B030BD00BFBC01002000B583B0E0
:1053300001A8FFF79DFD0199FFF748FFFFF77EFFEA
:10534000F6E7000082B0002301930D4B1B68B3F118
:10535000FF3F08D04FF0500383F31188BFF36F8FE6
:10536000BFF34F8FFEE74FF0500383F31188BFF375
:105370006F8FBFF34F8F019B002BFCD002B07047A3
:105380000800002008480068006880F308884FF093
:10539000000080F3148862B661B6BFF34F8FBFF38D
:1053A0006F8F00DF00BF000008ED00E0DFF80C00A9
:1053B000016841F4700101607047000088ED00E071
:1053C0004FF0807340F8043C21F0010140F8081CC4
:1053D000054B40F80C3C40F8202C6FF0020340F8DD
:1053E000243C4438704700BF4553000800000000CB
:1053F000074B19680868B0E8F04F80F30988BFF3DD
:105400006F8F4FF0000080F311887047AFF300807A
:10541000940100204FF0500383F31188BFF36F8F86
:10542000BFF34F8F0A4A136801331360012B0DD16C
:10543000084B1B6813F0FF0F08D04FF0500383F3A5
:105440001188BFF36F8FBFF34F8FFEE7704700BF28
:105450000800002004ED00E0094B1B6843B94FF041
:10546000500383F31188BFF36F8FBFF34F8FFEE7B5
:10547000013B034A13600BB983F31188704700BFE7
:1054800008000020000000000000000000000000F4
:10549000EFF30980BFF36F8F154B1A681EF0100FE2
:1054A00008BF20ED108A20E9F04F10602DE90900B7
:1054B0004FF0500080F31188BFF34F8FBFF36F8F11
:1054C000FFF716F94FF0000080F3118809BC196846
:1054D0000868B0E8F04F1EF0100F08BFB0EC108A5B
:1054E00080F30988BFF36F8F704700BFAFF3008070
:1054F0009401002008B54FF0500383F31188BFF3E7
:105500006F8FBFF34F8FFEF79DFF18B14FF08052A2
:10551000024B1A60002383F3118808BD04ED00E0FC
:10552000084A0023136008490B60084B1B680849B0
:10553000A1FB03139B09013B06490B600723136082
:10554000704700BF10E000E018E000E0100000200D
:10555000D34D621014E000E0394B1A68394B9A427F
:1055600008D14FF0500383F31188BFF36F8FBFF35F
:105570004F8FFEE7324B1A68334B9A4208D14FF0F7
:10558000500383F31188BFF36F8FBFF34F8FFEE794
:1055900010B582B02D4B1A78D2B20192FF221A7048
:1055A0001B78DBB28DF803309DF8033003F0500315
:1055B000274A13700723536009E0254A5368013BCB
:1055C00053609DF803305B00DBB28DF803309DF82B
:1055D000033013F0800FF0D11D4B5B68032B08D014
:1055E0004FF0500383F31188BFF36F8FBFF34F8FDA
:1055F000FEE71B0203F4E063154A5360019BDBB234
:10560000124A1370134B1A6842F470021A601A6837
:1056100042F070421A60FFF783FF00240E4B1C60BB
:10562000FFF7C4FE0D4A136843F040431360FFF7D1
:10563000A9FEFFF75DF8FFF785FE204602B010BD1A
:1056400000ED00E071C20F4170C20F4100E400E0C4
:10565000B802002020ED00E00800002034EF00E058
:10566000EFF305830F2B0FD9104A9B5CDBB2104A76
:105670001278934208D24FF0500383F31188BFF39E
:105680006F8FBFF34F8FFEE70A4B1B6803F4E06395
:10569000074A5268934208D94FF0500383F31188A8
:1056A000BFF36F8FBFF34F8FFEE77047F0E300E06B
:1056B000B80200200CED00E0024641688378C85C27
:1056C0000133DBB2937011788B4200D07047002316
:1056D0009370FBE7E2B1F8B51646D9B18218402ABB
:1056E00001D90020F8BD0C4605460B4F0121386852
:1056F000FEF7B4FB324621460848284401F084F8FE
:1057000000231A4619463868FEF74EF90120F8BD05
:10571000002070470020F8BDC40D0020C00200200A
:10572000E2B1F8B51646D9B18218402A01D9002055
:10573000F8BD0C4605460B4F01213868FEF78EFB7D
:10574000324609492944204601F05EF800231A46F2
:1057500019463868FEF728F90120F8BD0020704787
:105760000020F8BDC40D0020C0020020B4EEE00A05
:10577000F1EE10FA07D4B4EEC10AF1EE10FA04DD2E
:10578000B0EE410A7047B0EE600A704700231A4637
:105790008B420CD210B4C45C2244D2B20133DBB2CF
:1057A0008B42F8D3D043C0B25DF8044B7047D84366
:1057B000C0B2704730B583B005461E4B1B7853B15D
:1057C000022B1BD001234068FDF7C7FD012464B301
:1057D000204603B030BD4068FDF780F8022301AADF
:1057E00080210020FFF7DAF9012801D00024EEE73C
:1057F000019B13F0800F14D00124E8E74068FDF707
:1058000035F8022301AA80210020FFF7C7F90128FB
:1058100001D00024DBE7019B13F0800F03D00124AB
:10582000D5E70024D3E70024D1E76868FDF7FEF848
:10583000CEE700BF0C000020014B1870704700BF7E
:105840000C00002030B587B00446D0ED027A057810
:1058500077EE807A17EE900AFAF734FE00220D4BAD
:10586000FAF784FEFBF794F800902B460A4A1021C1
:1058700002A800F0DDFFC0B206AB03440D2203F81E
:10588000102C421CD2B202A92046FFF793FF07B0AA
:1058900030BD00BF000024408871000830B587B0DB
:1058A0000446DFED147AB4EEE70AF1EE10FA01DDFA
:1058B000B0EE670A257810EE100AFAF703FE002210
:1058C0000D4BFAF753FEFBF763F800902B460B4A9B
:1058D000102102A800F0ACFFC0B206AB03440D22B9
:1058E00003F8102C421CD2B202A92046FFF762FF37
:1058F00007B030BD00003443000024409C71000814
:10590000072900D9704710B586B004460378009186
:10591000094A102102A800F08BFFC0B206AB034475
:105920000D2203F8102C421CD2B202A92046FFF728
:1059300041FF06B010BD00BFC0710008012900D9A9
:10594000704710B586B0044603780091094A1021CB
:1059500002A800F06DFFC0B206AB03440D2203F8AD
:10596000102C421CD2B202A92046FFF723FF06B03A
:1059700010BD00BFCC71000810B586B00446037896
:105980000091094A102102A800F052FFC0B206ABF4
:1059900003440D2203F8102C421CD2B202A9204667
:1059A000FFF708FF06B010BDD471000810B586B02F
:1059B000044603780091094A102102A800F038FF3C
:1059C000C0B206AB03440D2203F8102C421CD2B225
:1059D00002A92046FFF7EEFE06B010BDE0710008F8
:1059E00010B586B0044603780091094A102102A838
:1059F00000F01EFFC0B206AB03440D2203F8102CCA
:105A0000421CD2B202A92046FFF7D4FE06B010BD58
:105A1000EC71000810B586B0044603780091094A7D
:105A2000102102A800F004FFC0B206AB03440D220F
:105A300003F8102C421CD2B202A92046FFF7BAFE8E
:105A400006B010BDF871000800B583B01A4B9A6C0F
:105A500042F002029A649A6C02F002020092009AEA
:105A60009A6C42F001029A649B6C03F0010301936B
:105A7000019B002205211020FBF7C4F91020FBF741
:105A8000F3F9002205211120FBF7BCF91120FBF7E7
:105A9000EBF9002211464420FBF7B4F94420FBF750
:105AA000E3F9002211464520FBF7ACF94520FBF74E
:105AB000DBF903B05DF804FB0010024000B58FB0C5
:105AC0003422002101A800F0AAFEAA238DF8043098
:105AD0008DF805300A238DF83730FEF7ADFC0090C5
